:020000040000FA
:020000000B28CB
:08000800C42800000000000004
:100010000000000000008501870107309900831669
:10002000843081000130910010309F003030870013
:1000300009308500831287018501AB01AC01AD0158
:100040007D30A4003C30A500A0308B0081309F00A3
:10005000071AAA20871AB720851D312885192E284E
:10006000AB092B1C35283720282878202828B501F3
:10007000B6010530B7009F149F183C2883161E0850
:100080008312A7000310A70C2708B607B70B3B285D
:100090000530B602031C4E28B50A4828A801A9015C
:1000A0003508A8000A30B502031C5828A90A5028B0
:1000B0001F3085000C3087002F308500003087000E
:1000C0003B308500280887003D30850029088700DF
:1000D0003F3085000A30A600C830A300A20100000E
:1000E0000000A20B6F28A30B6F28A60B6F28080037
:1000F000AF01B1012C08B2002D08B3003208AE00E8
:100100000A30B202031C8628AF0A7E283308B000EA
:100110000A30B302031C8E28B10A86281F308500DE
:100120002E0887002F3085002F0887003B30850080
:10013000300887003D308500310887003F3085005A
:10014000C830A300A20100000000A20BA328A30B4B
:10015000A3280800B40100000000B40BAB28071A64
:10016000AF28AC0A3C302C060319AC010800B401DE
:1001700000000000B40BB828871ABC28AD0A18305C
:100180002D060319AD010800A000030E8301A10094
:100190000B1106308100A40BDF287D30A400A50BD5
:1001A000DF283C30A500AC0A3C302C06031DDF28BC
:1001B000AC01AD0A18302D06031DDF28AD01210E5C
:0801C0008300A00E200E0900CF
:02400E00C43FAD
:00000001FF
